:020000040000fa
:080000000004040000000000f0
:020000040000fa
:0400080048070000a5
:020000040000fa
:04000c00e00600000a
:020000040000fa
:04001000fa060000ec
:020000040000fa
:0400140014070000cd
:020000040000fa
:040018002e070000af
:020000040000fa
:04001c004807000091
:020000040000fa
:04002000480700008d
:020000040000fa
:040024004807000089
:020000040000fa
:040028004807000085
:020000040000fa
:04002c004807000081
:020000040000fa
:04003000480700007d
:020000040000fa
:04003400f2040000d2
:020000040000fa
:040038004807000075
:020000040000fa
:04003c004807000071
:020000040000fa
:04004000480700006d
:020000040000fa
:040044004807000069
:020000040000fa
:040048004807000065
:020000040000fa
:04004c004807000061
:020000040000fa
:04005000a605000001
:020000040000fa
:040054004807000059
:020000040000fa
:040058004807000055
:020000040000fa
:04005c004807000051
:020000040000fa
:04006000480700004d
:020000040000fa
:040064004807000049
:020000040000fa
:040068004807000045
:020000040000fa
:04006c004807000041
:020000040000fa
:04007000480700003d
:020000040000fa
:040074004807000039
:020000040000fa
:040078004807000035
:020000040000fa
:04007c004807000031
:020000040000fa
:04008000480700002d
:020000040000fa
:040084004807000029
:020000040000fa
:040088004807000025
:020000040000fa
:04008c004807000021
:020000040000fa
:04009000480700001d
:020000040000fa
:040094004807000019
:020000040000fa
:040098004807000015
:020000040000fa
:04009c004807000011
:020000040000fa
:0400a00082050000d5
:020000040000fa
:0400a4005e050000f5
:020000040000fa
:0400a8004807000005
:020000040000fa
:0400ac00ca05000081
:020000040000fa
:0400b00048070000fd
:020000040000fa
:0400b40048070000f9
:020000040000fa
:0400b80048070000f5
:020000040000fa
:0400bc0048070000f1
:020000040000fa
:0400c00048070000ed
:020000040000fa
:0400c40048070000e9
:020000040000fa
:0400c80048070000e5
:020000040000fa
:0400cc0048070000e1
:020000040000fa
:0400d00048070000dd
:020000040000fa
:0400d40048070000d9
:020000040000fa
:0400d80048070000d5
:020000040000fa
:0400dc0048070000d1
:020000040000fa
:0400e00048070000cd
:020000040000fa
:0400e40048070000c9
:020000040000fa
:0400e80048070000c5
:020000040000fa
:0400ec0048070000c1
:020000040000fa
:0400f00048070000bd
:020000040000fa
:0400f40048070000b9
:020000040000fa
:0400f80048070000b5
:020000040000fa
:0400fc0048070000b1
:020000040000fa
:0401000048070000ac
:020000040000fa
:0401040048070000a8
:020000040000fa
:0401080048070000a4
:020000040000fa
:04010c0048070000a0
:020000040000fa
:04011000480700009c
:020000040000fa
:040114004807000098
:020000040000fa
:040118004807000094
:020000040000fa
:04011c004807000090
:020000040000fa
:04012000480700008c
:020000040000fa
:040124004807000088
:020000040000fa
:040128004807000084
:020000040000fa
:04012c004807000080
:020000040000fa
:04013000480700007c
:020000040000fa
:040134004807000078
:020000040000fa
:040138004807000074
:020000040000fa
:04013c004807000070
:020000040000fa
:04014000480700006c
:020000040000fa
:040144004807000068
:020000040000fa
:040148004807000064
:020000040000fa
:04014c004807000060
:020000040000fa
:04015000480700005c
:020000040000fa
:040154004807000058
:020000040000fa
:040158004807000054
:020000040000fa
:04015c004807000050
:020000040000fa
:04016000480700004c
:020000040000fa
:040164004807000048
:020000040000fa
:040168004807000044
:020000040000fa
:04016c004807000040
:020000040000fa
:040170003a0500004c
:020000040000fa
:04017400160500006c
:020000040000fa
:040178004807000034
:020000040000fa
:04017c001206000067
:020000040000fa
:04018000480700002c
:020000040000fa
:040184004807000028
:020000040000fa
:040188004807000024
:020000040000fa
:04018c004807000020
:020000040000fa
:04019000480700001c
:020000040000fa
:04019400ee05000074
:020000040000fa
:040198004807000014
:020000040000fa
:04019c004807000010
:020000040000fa
:0402080048070000a3
:020000040000fa
:04020c00480700009f
:020000040000fa
:04021000480700009b
:020000040000fa
:040214004807000097
:020000040000fa
:040218004807000093
:020000040000fa
:04021c00480700008f
:020000040000fa
:04022000480700008b
:020000040000fa
:040224004807000087
:020000040000fa
:040228004807000083
:020000040000fa
:04022c00480700007f
:020000040000fa
:04023000480700007b
:020000040000fa
:040234004807000077
:020000040000fa
:040238004807000073
:020000040000fa
:04023c00480700006f
:020000040000fa
:04024000480700006b
:020000040000fa
:04024400d8040000da
:020000040000fa
:040248004807000063
:020000040000fa
:04024c00480700005f
:020000040000fa
:04025000480700005b
:020000040000fa
:040254004807000057
:020000040000fa
:040258004807000053
:020000040000fa
:04025c00480700004f
:020000040000fa
:04026000480700004b
:020000040000fa
:040264004807000047
:020000040000fa
:040268004807000043
:020000040000fa
:04026c00480700003f
:020000040000fa
:04027000480700003b
:020000040000fa
:040274004807000037
:020000040000fa
:040278004807000033
:020000040000fa
:04027c00480700002f
:020000040000fa
:04028000480700002b
:020000040000fa
:040284004807000027
:020000040000fa
:040288004807000023
:020000040000fa
:04028c00480700001f
:020000040000fa
:04029000480700001b
:020000040000fa
:040294004807000017
:020000040000fa
:040298004807000013
:020000040000fa
:04029c00480700000f
:020000040000fa
:0402a000480700000b
:020000040000fa
:0402a4004807000007
:020000040000fa
:0402a8004807000003
:020000040000fa
:0402ac0048070000ff
:020000040000fa
:0402b00048070000fb
:020000040000fa
:0402b40048070000f7
:020000040000fa
:0402b80048070000f3
:020000040000fa
:0402bc0048070000ef
:020000040000fa
:0402c00048070000eb
:020000040000fa
:0402c40048070000e7
:020000040000fa
:0402c80048070000e3
:020000040000fa
:0402cc0048070000df
:020000040000fa
:0402d00048070000db
:020000040000fa
:0402d40048070000d7
:020000040000fa
:0402d80048070000d3
:020000040000fa
:0402dc0048070000cf
:020000040000fa
:0402e00048070000cb
:020000040000fa
:0402e40048070000c7
:020000040000fa
:0402e80048070000c3
:020000040000fa
:0402ec0048070000bf
:020000040000fa
:0402f00048070000bb
:020000040000fa
:0402f40048070000b7
:020000040000fa
:0402f80048070000b3
:020000040000fa
:0402fc0048070000af
:020000040000fa
:0403000048070000aa
:020000040000fa
:0403040048070000a6
:020000040000fa
:0403080048070000a2
:020000040000fa
:04030c00480700009e
:020000040000fa
:04031000480700009a
:020000040000fa
:040314004807000096
:020000040000fa
:040318004807000092
:020000040000fa
:04031c00480700008e
:020000040000fa
:04032000480700008a
:020000040000fa
:040324004807000086
:020000040000fa
:040328004807000082
:020000040000fa
:04032c00480700007e
:020000040000fa
:04033000480700007a
:020000040000fa
:040334004807000076
:020000040000fa
:040338004807000072
:020000040000fa
:04033c00480700006e
:020000040000fa
:04034000480700006a
:020000040000fa
:040344004807000066
:020000040000fa
:040348004807000062
:020000040000fa
:04034c00480700005e
:020000040000fa
:04035000480700005a
:020000040000fa
:040354004807000056
:020000040000fa
:040358004807000052
:020000040000fa
:04035c00480700004e
:020000040000fa
:04036000480700004a
:020000040000fa
:040364004807000046
:020000040000fa
:040368004807000042
:020000040000fa
:04036c00480700003e
:020000040000fa
:04037000360600004d
:020000040000fa
:0403740088060000f7
:020000040000fa
:040378004807000032
:020000040000fa
:04037c00480700002e
:020000040000fa
:04038000480700002a
:020000040000fa
:040384004807000026
:020000040000fa
:040388004807000022
:020000040000fa
:04038c00480700001e
:020000040000fa
:04039000480700001a
:020000040000fa
:040394004807000016
:020000040000fa
:040398004807000012
:020000040000fa
:04039c00480700000e
:020000040000fa
:080400001c1800007e1800002a
:020000040000fa
:100800004f9920008efe20000e018800000000009d
:10081000000020000000e000020032000001200083
:1008200020028800140007009b0107000000e00080
:1008300003003a0040d221000100200002003700ee
:100840000000200001002000810f70000100320034
:1008500014000700000020000000e0000200320049
:1008600000000200000000000c1b0200000000005d
:100870000040da000000fe004440a90000202000f3
:100880000000e0000300320000002000a00188000a
:100890004440a800000006008a1f78008b1f7800e3
:1008a0000000060091018800800478000000eb0041
:1008b0001a003700e284440032a0b4009905ba005f
:1008c000e284440032a0b4009906ba00e2844400f5
:1008d00032a0b4000006eb00476fde00fd07b20057
:1008e000636ce10003003a00ebff07000000eb003f
:1008f0000a003700606ce10004003a00005deb0084
:100900008b05e900fdff3e00040037006168e1004f
:10091000010032000086eb000b00070019c7ba0087
:100920001905ba000e04e00003003a000a00e000d6
:10093000e0ff3a0000000600fe07b2009e018800ba
:100940008a047800f5ff3700395dba008b05e900ad
:100950000c003200295dba008b05e9000800320066
:100960000c00e00003003a00e284440032a0b4002e
:10097000f5ff370019ddba008b05e900faff3a00f0
:100980008904e800e184440032a0b40000000600bd
:100990001c180400000000007e1804000000000085
:1009a0005c090400000000001e0b040000000000b1
:1009b000801f78003400f80000002000a0018800ab
:1009c0000000fa0084e0a900b04080000000e800c8
:1009d000b04088000080fa003400f9004f00780031
:1009e000004006003600f800809fbe00829fbe00d7
:1009f000849fbe00869fbe003400f80000002000e7
:100a0000a00188000000fa00871307000080fa00a8
:100a10003400f9004f03be004f02be004f01be007c
:100a20004f00be003600f900004006003600f80016
:100a3000809fbe00829fbe00849fbe00869fbe0036
:100a40003400f80000002000a00188000000fa0037
:100a5000891307000080fa003400f9004f03be003c
:100a60004f02be004f01be004f00be003600f9002d
:100a7000004006003600f800809fbe00829fbe0046
:100a8000849fbe00869fbe003400f8000000200056
:100a9000a00188000000fa00721307000080fa002d
:100aa0003400f9004f03be004f02be004f01be00ec
:100ab0004f00be003600f900004006003600f80086
:100ac000809fbe00829fbe00849fbe00869fbe00a6
:100ad0003400f80000002000a00188000000fa00a7
:100ae0005b1307000080fa003400f9004f03be00da
:100af0004f02be004f01be004f00be003600f9009d
:100b0000004006003600f800809fbe00829fbe00b5
:100b1000849fbe00869fbe003400f80000002000c5
:100b2000a00188000000fa00441307000080fa00ca
:100b30003400f9004f03be004f02be004f01be005b
:100b40004f00be003600f900004006003600f800f5
:100b5000809fbe00829fbe00849fbe00869fbe0015
:100b60003400f80000002000a00188000000fa0016
:100b7000461307000080fa003400f9004f03be005e
:100b80004f02be004f01be004f00be003600f9000c
:100b9000004006003600f800809fbe00829fbe0025
:100ba000849fbe00869fbe003400f8000000200035
:100bb000a00188000000fa00391307000080fa0045
:100bc0003400f9004f03be004f02be004f01be00cb
:100bd0004f00be003600f900004006003600f80065
:100be000809fbe00829fbe00849fbe00869fbe0085
:100bf0003400f80000002000a00188000000fa0086
:100c00002c1307000080fa003400f9004f03be00e7
:100c10004f02be004f01be004f00be003600f9007b
:100c2000004006003600f800809fbe00829fbe0094
:100c3000849fbe00869fbe003400f80000002000a4
:100c4000a00188000000fa001f1307000080fa00ce
:100c50003400f9004f03be004f02be004f01be003a
:100c60004f00be003600f900004006003600f800d4
:100c7000809fbe00829fbe00849fbe00869fbe00f4
:100c80000000fa00f0048000640060000000e00052
:100c90001800320070048000640060000000e00072
:100ca000140032008e40a9009012800062006000a3
:100cb0000000e000040032005222a900104580002c
:100cc0000040a00010458800901280006400600081
:100cd0000000e00004003200b012800010458000e7
:100ce0000040a00010458800b0128000004078004d
:100cf000460607000080fa004f03be004f02be0008
:100d00004f01be004f00be003600f9000040060053
:100d1000809fbe00821f78000000fa00f00480006f
:100d2000680060000000e0002100320070048000d4
:100d3000680060000000e0001d0032008e60a90025
:100d4000709220009040780060922000104078005f
:100d500080cf50000b003a00dba2a9009e60a900e2
:100d600051498000f0fd2f0000806000504988004c
:100d700051498000d0ff2f0000806000504988005a
:100d80000b00370070922000104078000081fb00bb
:100d9000418a200081004100914078008180fb0061
:100da000a11288008040e80070922000014878007d
:100db0000080fa004f0178004f00be00004006009e
:100dc0000000fa008020a9000000000000000000e0
:100dd0000000000000000000000000000000000013
:100de00000000000000000000000fe000080fa008b
:100df000004006000000fa008060a900000000002a
:100e000000000000000000000000000000000000e2
:100e10000000000000000000000000000000fe00d4
:100e20000080fa00004006000000fa008040a9009f
:100e300000000000000000000000000000000000b2
:100e400000000000000000000000000000000000a2
:100e50000000fe000080fa00004006000000fa00da
:100e60008080a900000000000000000000000000d9
:100e70000000000000000000000000000000000072
:100e8000000000000000fe000080fa0000400600a4
:100e90000040da000000fe0000000500800178003c
:100ea00002003700815978000201e9000200e000e9
:080eb000fcff3a0000000600ff
:020000040000fa
:100eb80000000000c1c0000081c100004001000026
:100ec80001c30000c00300008002000041c200000e
:100ed80001c60000c00600008007000041c70000ee
:100ee80000050000c1c5000081c4000040040000e6
:100ef80001cc0000c00c0000800d000041cd0000b6
:100f0800000f0000c1cf000081ce0000400e00009d
:100f1800000a0000c1ca000081cb0000400b00009d
:100f280001c90000c00900008008000041c8000095
:100f380001d80000c01800008019000041d9000045
:100f4800001b0000c1db000081da0000401a00002d
:100f5800001e0000c1de000081df0000401f00000d
:100f680001dd0000c01d0000801c000041dc000005
:100f780000140000c1d4000081d500004015000015
:100f880001d70000c01700008016000041d60000fd
:100f980001d20000c01200008013000041d30000fd
:100fa80000110000c1d1000081d0000040100000f5
:100fb80001f00000c03000008031000041f1000065
:100fc80000330000c1f3000081f20000403200004d
:100fd80000360000c1f6000081f70000403700002d
:100fe80001f50000c03500008034000041f4000025
:100ff800003c0000c1fc000081fd0000403d0000f5
:1010080001ff0000c03f0000803e000041fe0000dc
:1010180001fa0000c03a0000803b000041fb0000dc
:1010280000390000c1f9000081f8000040380000d4
:1010380000280000c1e8000081e900004029000004
:1010480001eb0000c02b0000802a000041ea0000ec
:1010580001ee0000c02e0000802f000041ef0000cc
:10106800002d0000c1ed000081ec0000402c0000c4
:1010780001e40000c02400008025000041e50000d4
:1010880000270000c1e7000081e6000040260000bc
:1010980000220000c1e2000081e3000040230000bc
:1010a80001e10000c02100008020000041e00000b4
:1010b80001a00000c06000008061000041a10000a4
:1010c80000630000c1a3000081a20000406200008c
:1010d80000660000c1a6000081a70000406700006c
:1010e80001a50000c06500008064000041a4000064
:1010f800006c0000c1ac000081ad0000406d000034
:1011080001af0000c06f0000806e000041ae00001b
:1011180001aa0000c06a0000806b000041ab00001b
:1011280000690000c1a9000081a800004068000013
:1011380000780000c1b8000081b9000040790000c3
:1011480001bb0000c07b0000807a000041ba0000ab
:1011580001be0000c07e0000807f000041bf00008b
:10116800007d0000c1bd000081bc0000407c000083
:1011780001b40000c07400008075000041b5000093
:1011880000770000c1b7000081b60000407600007b
:1011980000720000c1b2000081b30000407300007b
:1011a80001b10000c07100008070000041b0000073
:1011b80000500000c19000008191000040510000e3
:1011c80001930000c05300008052000041920000cb
:1011d80001960000c05600008057000041970000ab
:1011e80000550000c19500008194000040540000a3
:1011f800019c0000c05c0000805d0000419d000073
:10120800005f0000c19f0000819e0000405e00005a
:10121800005a0000c19a0000819b0000405b00005a
:1012280001990000c0590000805800004198000052
:1012380001880000c0480000804900004189000082
:10124800004b0000c18b0000818a0000404a00006a
:10125800004e0000c18e0000818f0000404f00004a
:10126800018d0000c04d0000804c0000418c000042
:1012780000440000c1840000818500004045000052
:1012880001870000c047000080460000418600003a
:1012980001820000c042000080430000418300003a
:1012a80000410000c1810000818000004040000032
:020000040000fa
:1012b8000800fa0020079800614798000040eb00fa
:1012c80010479800ae0090001e4090000080fb0080
:1012d8000080400021c0b300014878001e40900003
:1012e8000040e80010479800ae0090001e409000b3
:1012f8000080fb00008040006e41900041c8b300b0
:1013080081404100014878001e4090000040e800fc
:10131800104798001e4090000040e80010479800d1
:101328002093200010407800004178002e009000a3
:101338008e00e800b00607002093200010407800d7
:101348000080fb00f20f500027003200f20f50001f
:1013580003003c00f10f5000060032006b0037001c
:10136800f30f50003e003200f40f500059003200d5
:1013780066003700e04980004800de00f24980003e
:10138800f10f200081006100c808dd000100700035
:10139800004178002e0090008e00e80096060700b5
:1013a800e04980004800de00f2498000f10f20008b
:1013b80081006100c808dd00010070004800de00ff
:1013c800004178002e0090008e00e8008a06070091
:1013d80010408000e10f50004b003a002000200030
:1013e8001040880049003700e04980004800de00ce
:1013f800f2498000f10f200081006100c808dd007b
:1014080001007000004178002e0090008e00e80076
:1014180079060700e04980004800de00f2498000b4
:10142800f10f200081006100c808dd000100700094
:101438004800de00004178002e0090008e00e80091
:101448006d060700a0972000104078000041780042
:101458002e0090008e00e800670607002b0037007a
:101468000040eb00004f7800160037001e80fb009c
:101478006800400080004000209320000080400069
:1014880010007800004178002e0090008e00e800df
:10149800590607001e80fb006800400080004000dd
:1014a8002093200000804000100078004800de00f3
:1014b800004178002e0090008e00e8004e060700dc
:1014c8001e4fe8001e407800fb4f5000e7ff360033
:1014d8000e0037002e0090008e00e80012c0b30006
:1014e800450607002e0090008e00e80082c0b30079
:1014f800410607002e0090008e00e80012c0b300dd
:101508003d06070001003700000000001e40900063
:1015180052c2b300824040002e0090002140980043
:101528001e409000e54040002e00900021409900a8
:101538001e4090008080fb002e0090000001eb0010
:10154800bb06070010079800ae0090001e409000f0
:101558000080fb0000804000be4090008180fb00be
:10156800c408de00814078000142b00001487800dc
:101578001e4090000040e80010479800ae00900020
:101588001e4090000080fb0000804000be4090009c
:10159800efc060000142b000014878001e40900092
:1015a8000040e80010479800ae0090001e409000f0
:1015b8000080fb0000804000ae4090008180fb006e
:1015c800c408de00814078000142b000014878007c
:1015d8001e4090000040e80010479800ae009000c0
:1015e8001e4090000080fb0000804000ae4090004c
:1015f800efc060000142b000014878001e40900032
:101608000040e80010479800ae0090001e4090008f
:101618000080fb000080400031c0b3000148780022
:101628001e4090000040e800104798000080fa0033
:10163800000006000c00fa0040079800214f9800af
:1016480030c0b300004f78000000eb00100798008e
:101658006000b80020079800310798001e80fb0042
:10166800ce009000e14078002093200001487800e7
:101678001e4fe80020932000104078000080fb00f7
:10168800ed0f50003c013200ed0f500005003c000a
:10169800ea0f5000c5003200eb0f50006e01320017
:1016a80071013700ef0f500005003200ef0f5000b6
:1016b8006c013500f00f50004e0032006a0137000f
:1016c8001e80fb00ce0090006140780040479800e3
:1016d8001e4fe8001e80fb00ce009000614078009d
:1016e800504798001e4fe8001e80fb00ce00900077
:1016f80061407800604798001e4fe8002e00900077
:10170800be009000f20f2000020160004811dd00c9
:1017180094498000f30f20008301620003017100e7
:1017280092498800c801de00f20f200002816100a2
:10173800a449800003f02f008301620003017100b7
:10174800a2498800f20f2000028160004811dd00e4
:10175800a4498000f30f2000830162000301710097
:10176800a2498800c808de00f00f20000080600051
:10177800b249800001f02f00810061000100700073
:10178800b04988001e80fb00ce00900061407800c0
:10179800204798001e4fe8001e80fb00ce009000f6
:1017a80061407800304798001e4fe8001e00900006
:1017b800f10f200081006000c808dd00d3498000d7
:1017c800f20f20000281610082807000d1498800f8
:1017d800c800de00f00f200000806000e2498000b1
:1017e80001f02f008100610001007000e0498800cd
:1017f8001d0137001e80fb00ce009000614078007c
:10180800204798001e4fe8001e80fb00ce00900085
:1018180061407800304798001e4fe8001e00900095
:10182800f10f200081006000c808dd00e349800056
:10183800f20f20000281610082807000e149880077
:10184800c800de00f00f200000806000f249800030
:1018580001f02f008100610001007000f04988004c
:101868001e80fb00ce009000614078004047980041
:101878001e4fe8001e80fb00ce00900061407800fb
:10188800504798001e4fe8001e80fb00ce009000d5
:1018980061407800604798001e4fe8002e009000d5
:1018a800be009000f20f2000020160004811dd0028
:1018b800b4498000f30f2000830162000301710026
:1018c800b2498800c801de00f20f200002816100e1
:1018d800c449800003f02f008301620003017100f6
:1018e800c2498800f20f2000028160004811dd0023
:1018f800c4498000f30f20008301620003017100d6
:10190800c2498800c808de00f00f2000008060008f
:10191800d249800001f02f008100610001007000b1
:10192800d04988001e80fb00ce009000e14078007e
:1019380010942000014878001e4fe8000040eb009a
:1019480010479800150037001e80fb00ce0090005d
:1019580061407800204798001e4fe8001e80fb0079
:10196800ce00900061407800304798001e4fe80094
:101978001e4090000080fb009e0090006800400020
:101988000001400020932000000041000108780079
:101998001e4090000040e800104798001e4090004c
:1019a800fb4f5000e8ff3600af0037001e80fb00f9
:1019b800ce00900061407800204798001e4fe80054
:1019c8001e80fb00ce0090006140780030479800f0
:1019d8001e4fe8001e009000f10f200081006000fb
:1019e800c808dd00e3498000f20f20000281610091
:1019f80082807000e1498800c800de00f00f2000f6
:101a080000806000f249800001f02f008100610031
:101a180001007000f04988001e80fb00ce00900095
:101a280061407800404798001e4fe8001e80fb0088
:101a3800ce00900061407800504798001e4fe800a3
:101a48001e80fb00ce00900061407800604798003f
:101a58001e4fe8002e009000be009000f20f2000fc
:101a6800020160004811dd00b4498000f30f200036
:101a78008301620003017100b2498800c801de00d9
:101a8800f20f200002816100c449800003f02f009a
:101a98008301620003017100c2498800f20f20002f
:101aa800028160004811dd00c4498000f30f200066
:101ab8008301620003017100c2498800c808de0082
:101ac800f00f200000806000d249800001f02f0054
:101ad8008100610001007000d04988001e80fb0071
:101ae800ce009000e1407800109420000148780072
:101af8001e4fe8000040eb00104798001500370023
:101b08001e80fb00ce0090006140780020479800be
:101b18001e4fe8001e80fb00ce0090006140780058
:101b2800304798001e4fe8001e4090000080fb00e0
:101b38009e009000680040000001400020932000b3
:101b480000004100010878001e4090000040e800b5
:101b58001047980010942000104078000080fb0087
:101b68000000d100804078001e40900080cf5000d7
:101b7800e3ff3e003c0037001e80fb00ce009000d3
:101b8800e140780010942000014878001e4fe800da
:101b98001e80fb00ce00900061407800404798000e
:101ba8001e4fe8001e80fb00ce00900061407800c8
:101bb800504798001e4fe8001e80fb00ce009000a2
:101bc80061407800604798001e4fe8002e009000a2
:101bd800be009000f20f2000020160004811dd00f5
:101be800b4498000f30f20008301620003017100f3
:101bf800b2498800c801de00f20f200002816100ae
:101c0800c449800003f02f008301620003017100c2
:101c1800c2498800f20f2000028160004811dd00ef
:101c2800c4498000f30f20008301620003017100a2
:101c3800c2498800c808de00f00f2000008060005c
:101c4800d249800001f02f0081006100010070007e
:101c5800d049880004003700100020002040880088
:101c680001003700000000001093200011c0b300ed
:101c7800014878000080fa00000006000200fa001f
:101c880000992000104078000080fb00e30f50000e
:101c98001d013200e30f500007003c00e10f500027
:101ca80055003200e10f5000e1003c000000e00068
:101cb80008003200ae013700e50f50008f013200f6
:101cc800e50f500046013500e60f50009301320041
:101cd800a7013700b0c0b300004f780003003700f9
:101ce8001e407800e50607001e4fe80090cab300c2
:101cf8009e40780080cf5000f9ff36000099200000
:101d080011c0b3000148780010c1b3009a01070060
:101d1800924980004811de00a4498000f30f20009a
:101d280083016200c819dd00030171000200780018
:101d3800a24980004811de00b4498000f30f20005a
:101d480083016200c819dd00030171008200780078
:101d5800f20f2000020160004811dd00b449800044
:101d6800f30f20008301620003017100b24988006b
:101d7800c801de00f20f200002816100c449800022
:101d880003f02f008301620003017100c24988003b
:101d9800f20f2000028160004811dd00c449800074
:101da800f30f20008301620003017100c24988001b
:101db800c808de00f00f200000806000d2498000d3
:101dc80001f02f008100610001007000d0498800f7
:101dd800f1498000f00f2000008060000080a00022
:101de800f0498800014a800000f02f000080600060
:101df800004a88005e0137002093200010407800d8
:101e0800f04f500025003a00109320001040780051
:101e18000004e00021003200e04980004800de00b4
:101e2800f2498000f10f200081006100c808dd0040
:101e38000100700080007800f04980004800de0052
:101e4800034a8000f20f2000028161004811dd0082
:101e580002007000808f500004003a0000992000b2
:101e680021c0b3000148780008003700a09720007f
:101e780021c0b3000148780020c1b3003e0107002b
:101e8800e098200041c0b30001487800109320007a
:101e98008040eb0001487800640037002093200060
:101ea80010407800ea4f500025003a0010932000b7
:101eb800104078000004e00021003200e049800072
:101ec8004800de00f2498000f10f20008100610027
:101ed800c808dd000100700080007800f04980002b
:101ee8004800de00034a8000f20f200002816100f2
:101ef8004811dd0002007000808f500004003a0095
:101f08000099200031c0b30001487800080037006c
:101f1800a097200021c0b3000148780020c1b30079
:101f280015010700e098200041c0b300014878007f
:101f3800109320008040eb00014878003b003700f8
:101f48002093200010407800ed4f50000b003a001d
:101f580010932000104078000004e00007003200d1
:101f68000099200041c0b300014878001093200078
:101f78008040eb00014878002c00370020932000b7
:101f880010407800ee4f50000b003a0010932000ec
:101f9800104078000004e00007003200009920009b
:101fa80051c0b30001487800109320008040eb0036
:101fb800014878001d003700209320001040780069
:101fc800ef4f50000b003a001093200010407800ab
:101fd8000004e00007003200009920008040eb0078
:101fe80001487800109320008040eb0001487800f9
:101ff8000e0037002093200010407800e94f500071
:10200800d6003a0010932000104078000004e00049
:10201800d4003200109320008040eb000148780083
:1020280040c1b300d4000700d1003700d00037000a
:1020380010942000104078000080fb000000d100c0
:10204800004078000081fb00b3498000c819de0019
:10205800c5498000f40f2000048262004822dd0098
:102068008481710003007800c3498000c819de002c
:10207800d5498000f40f2000048262004822dd0068
:10208800848171008300780023942000bf05070035
:1020980010c1b300b8000700f04980004800de0016
:1020a800024a8000f10f200081006100c808dd00ad
:1020b800010070000000e800f10f200081006000be
:1020c800c808dd00f3498000f20f2000028161009a
:1020d80082807000f1498800c800de00f00f2000ff
:1020e80000806000024a800001f02f00810061003a
:1020f80001007000004a88000099200011c0b30058
:10210800014878009a0037001094200010407800a9
:102118000080fb000000d100004078000081fb0037
:10212800b3498000c819de00c5498000f40f2000bb
:10213800048262004822dd00848171000300780077
:10214800c3498000c819de00d5498000f40f20007b
:10215800048262004822dd008481710083007800d7
:10216800239420008905070010c1b30082000700ee
:10217800f04980004800de00024a8000f10f20008c
:1021880081006100c808dd00010070000000e8005f
:10219800f10f200081006000c808dd00f3498000cd
:1021a800f20f20000281610082807000f1498800ee
:1021b800c800de00f00f200000806000024a8000a6
:1021c80001f02f008100610001007000004a8800c2
:1021d8000099200011c0b30001487800640037005e
:1021e8000040eb00004f780037003700b24980000c
:1021f8004811de00c4498000f30f2000830162000b
:10220800c819dd000301710002007800c24980008e
:102218004811de00d4498000f30f200083016200da
:10222800c819dd0003017100820078001e81fb00df
:102238008001eb000000410081804900380507005b
:1022480090408800a14088001e80fb00fc004000f0
:1022580010942000104078000080fb000000d1009e
:10226800004078000080fb00008050009140800012
:102278006800400000014000209320000000410059
:10228800010878001568ef001e80fb00fd00400083
:1022980010942000104078000080fb000000d1005e
:1022a800004078000080fb0000805000a1408000c2
:1022b8006800400000014000209320000000410019
:1022c800010878001ecfe800109420001040780024
:1022d8000080fb000000d100004078009e4f5000b5
:1022e800c2ff3e0030c1b300230007000099200060
:1022f80011c0b300014878001d00370010c1b300b9
:102308001d000700100020001040880000992000e0
:1023180061c0b30001487800150037001040800004
:10232800e20f500011003a0040c0220001002000d6
:10233800800407001ae8b7001ac8bf00e14f500030
:1023480004003a0000000000000000009e0407009e
:10235800070037000228ef000500370000000000e2
:1023680003003700000000000100370000000000f3
:102378000080fa00000006000200fa00004f780012
:10238800209320001e487800a092200090407800fa
:102398000104a000014878000080fa00000006004f
:1023a8000000fa00e0982000104078000080fb0050
:1023b800e30f500049003200e40f50004a00320099
:1023c800e10f50004d003a002093200010407800a3
:1023d800ef4f50000e003a00109320001040780094
:1023e8000004e0000a003200e098200031c0b30089
:1023f80001487800009920008040eb0001487800ef
:10240800109320008040eb0001487800320037002c
:102418002093200010407800ed4f50000e003a0045
:1024280010932000104078000004e0000a003200f9
:10243800e098200031c0b3000148780000992000de
:1024480041c0b30001487800109320008040eb00a1
:1024580001487800200037002093200010407800c1
:10246800ee4f50000e003a00109320001040780004
:102478000004e0000a003200e098200031c0b300f8
:10248800014878000099200051c0b3000148780045
:10249800109320008040eb00014878000e003700c0
:1024a8002093200010407800e94f500010003a00b7
:1024b80010932000104078000004e0000e00320065
:1024c800109320008040eb000148780040c1b30021
:1024d800a9ff07000900370008003700e7fd0700db
:1024e80000000000050037000040fe00feff370036
:1024f8000000000001003700000000000080fa0022
:10250800000006000600fa00f0812000100798007d
:102518000040eb00104798009e409000014f780063
:102528002b0037001e80fb009e00900000804000ba
:1025380090407800414798001e4fe8004e409000b8
:10254800fb4f500019003a001e80fb009e009000cf
:10255800008040009040780000cdb30000c04000eb
:10256800404798001e4fe8004e4090000004e000ed
:1025780007003a001e4090000080fb009e0090007b
:1025880000804000b1c1b300014878000d00370059
:102598001e4090000080fb009e00900000804000dc
:1025a800ce40900001487800060037001e40900099
:1025b8000080fb009e00900000804000ce4090000c
:1025c800014878001e4090000040e800104798003d
:1025d800e0892000104078009e4f5000d1ff3e0057
:1025e800e0892000904078001e4090001e40500076
:1025f80080c04000e0892000014878000080fa008f
:10260800000006000200fa00881f7800004f7800da
:10261800208a200010407800704060000004e0002c
:102628004c013a00008a2000104078000080fb002e
:10263800e20f500057003200e20f500005003c0046
:102648000000e0000a003200e10f500020003200d4
:1026580035013700e40f5000b0003200e40f50009d
:1026680076003500e50f5000ca0032002e01370011
:102678001e407800e24f50002f013a00f0892000f8
:10268800104078000081fb00c181200081004100da
:102698009e4878008040e800f089200001487800d2
:1026a800f08920009040780010c8b30080cf500017
:1026b80003003600104580000040a0001045880047
:1026c800008a200011c0b3000148780021013700ba
:1026d800f0892000104078000081fb00c1812000b3
:1026e800810041009e4878008040e800f089200081
:1026f80001487800f08920009040780010c8b300a5
:1027080080cf500003003600104580000040a00034
:102718001045880000ceb3001e404000fcefb70013
:10272800fccfbf000004e00005003200c1ff20001c
:1027380091407800f0c3b30080cf500011003600fc
:10274800c1ff20009140780040c6b30080cf500000
:1027580005003600c1ff20009140780030cab30060
:1027680080cf500007003600fccfbf000004e00017
:1027780004003200104580000040a0001045880089
:10278800f4003700008a200021c0b3000148780017
:10279800f0003700f0892000104078000081fb002d
:1027a800c1812000810041009e4878008040e800f7
:1027b800f089200001487800f089200090407800d6
:1027c80010c8b30080cf50000300360010458000c9
:1027d8000040a0001045880080c2b3009e407800e9
:1027e80080cf50000400360020cab3009e40780015
:1027f80080cf500004003600104580000040a00043
:1028080010458800d300370000ceb3009e4040003a
:10281800e089200001487800e08920001040780015
:10282800e5405000e089200001487800008a200037
:1028380031c0b30001487800c6003700108a200074
:10284800104078000004e0001300320000c3b30019
:102858009e40780080cf50000b00320020c3b300a8
:102868009e40780080cf50000700320030c3b3008c
:102878009e40780080cf5000030032001045800051
:102888000040a00010458800108a20008040eb001e
:1028980001487800060037001e407800fb4f5000c2
:1028a80003003a00108a200011c0b30001487800e4
:1028b800f0892000104078000081fb00c1812000d1
:1028c800810041009e4878008040e800f08920009f
:1028d80001487800f08920009040780010c8b300c3
:1028e80080cf500003003600104580000040a00053
:1028f80010458800f089200090407800e089200089
:102908001040780080cf50008d003a00008a2000e7
:1029180041c0b300014878008e003700f0892000dc
:10292800104078000081fb00c18120008100410037
:102938009e4878008040e800f0892000014878002f
:10294800f08920009040780010c8b30080cf500074
:1029580003003600104580000040a00010458800a4
:10296800f0892000104078008080fb00e08920007a
:10297800104078000080fb0064004000808f500009
:1029880071003a00008a200051c0b3000148780065
:10299800700037001e407800e34f500033003a00c3
:1029a800f0892000104078000080fb00e40050000f
:1029b800c081200000804000104078000080fb00ab
:1029c8000002b100cc00dd00f08920001040780042
:1029d8000080fb0063015000c0812000000041001e
:1029e800104078000080fb000002b1004800dd00c4
:1029f80081007000f0892000104078000080fb0002
:102a08000081e900c08120000000410010407800ea
:102a18000080fb000002b1004400dd00810070006e
:102a2800f0892000104078000080fb000001e900d8
:102a3800c081200000004100104078000080fb00a9
:102a48000002b10001047000e08920001040780005
:102a58000080fb000001eb0080007800c0812000ae
:102a680073010700800f54000400320010458000f5
:102a78000040a0001045880036003700f08920008b
:102a8800104078000081fb00c181200081004100d6
:102a98009e4878008040e800f089200001487800ce
:102aa800f08920009040780010c8b30080cf500013
:102ab80003003600104580000040a0001045880043
:102ac800e089200010407800e3405000e0892000b1
:102ad800014878008bfe0700c1ff20009140780074
:102ae80000c8bf0080cf500003003200fccfbf00f9
:102af8000004e00003003a00104580000030a00008
:102b080010458800208a2000104078006840600046
:102b18000004e0000e003a00104580000040a000cc
:102b2800104588000b003700104580000040a000c9
:102b38001045880007003700000000000500370036
:102b4800000000000300370000000000010037000b
:102b580000000000208a20001040780070406000cb
:102b68000004e00002003200c08120006900070074
:102b78004f0478000080fa00000006000000fa0008
:102b8800a092200010407800614060000004e0003e
:102b980013003200a0922000104078000042b200da
:102ba8000004e0000e003a0051498000e0ff2f00c9
:102bb8000080600050498800408a200055000700c6
:102bc8006249800000c8bf0080407800408a200029
:102bd80002000100504980000010a0005049880000
:102be8000080fa00000006000000fa00208a200099
:102bf80010407800684060000004e00016003200d1
:102c080000982000104078000004e00004003a001a
:102c18000098200011c0b300014878000e0037006a
:102c28000098200010407800e14f40000a003a0068
:102c38007249800000c8bf0080407800c081200031
:102c480002000100c0812000320007000098200027
:102c58008040eb00014878000080fa000000060080
:102c68000000fa00a0922000104078006240600046
:102c78000004e00025003200a092200010407800f7
:102c88000042b2000004e0001d003a0060922000fb
:102c98009040780020c8b30080cf50001a003e0052
:102ca800dba2a8008e60a9009e60a80050498000a1
:102cb8000050a000504988000000000091128000d8
:102cc80000102000008060000000e000fbff3200e0
:102cd80070922000104078000081fb00418a20009b
:102ce80081004100914078008180fb00a11288009a
:102cf8008040e80070922000014878000300370007
:102d08000000000001003700000000000080fa0009
:102d1800000006000200fa00000f78001e0078008c
:102d2800220820008000eb005af807001e007800f7
:102d38008040eb00614099001e0078008040eb0065
:102d4800414099001e0078008040eb003140990016
:102d58001e0078008040eb00214099001e0078009a
:102d68008040eb00514099000080fa000000060006
:102d78000000fa0080002000801288005222ef0034
:102d880010022000c0128800dd62a800d962a900e4
:102d9800dd82a900d982a80051e2a80053e2a90067
:102da80053a2a8005342a8008e40a9008e60a90033
:102db8009e40a800dba2a900c0812000d5ff070023
:102dc800408a2000d3ff0700c09520006049880092
:102dd800e0b12000704988000080fa000000060079
:102de8000000fa0080ff070064ff07009cff07004f
:102df8000080fa00000006000600fa00000f7800c4
:102e080011079800424798004e409000e24f50004a
:102e1800030032004e409000e34f500018003a0083
:102e28001e009000104078000080fb001e0040004b
:102e3800b1c1b300014878001e009000104078002e
:102e48008040e8001e009000014878001e009000b5
:102e5800104078000080fb001e004000ce4090002b
:102e68000143b000014878001e009000104078002f
:102e78008040e8001e0090000148780025003700d7
:102e88004e409000fb4f500017003a001e00900083
:102e9800104078000080fb001e004000b1c1b30064
:102ea800014878001e009000104078008040e8003b
:102eb8001e009000014878001e0090001040780025
:102ec8000080fb001e00400001c3b30001487800e9
:102ed8001e009000104078008040e8001e0090001e
:102ee800014878000b0037001e0090001040780061
:102ef8000080fb001e004000ce4090000148780092
:102f08001e009000104078008040e8001e009000ed
:102f1800014878000080fa00000006000200fa006c
:102f28000000eb00000f7800010037001e0fe800da
:102f38001e007800e90f5000fcff36000080fa0000
:102f4800000006000000fa00e09820001040780019
:102f5800e14f500034003a002093200010407800e0
:102f6800eb4f500006003a00109320001040780004
:102f78000004e00002003200200020002040880009
:102f8800c097200010407800e24f500002003a003d
:102f98003000200020408800c097200010407800b2
:102fa800e24f50000e003a002093200010407800b5
:102fb800eb4f50000a003a001093200010407800b0
:102fc8000004e0000600320030c0b3001ae8b70081
:102fd800109320008040eb00014878000b00370078
:102fe800c097200010407800e14f400007003a00e9
:102ff8001ac8bf000004e00004003a0040c02200e4
:10300800010020004b0107001ae8b700c097200014
:1030180010407800e14f400003003a00c0972000bc
:103028008040eb00014878000080fa0000000600ac
:103038000e00fa00400798005107980062079800b0
:10304800410320009140780041479800000020008b
:103058000040780034e0b7006000b800008fbe0080
:10306800190037004e009000104078008080fb0067
:103078006e00900080806800f00f200000806000e3
:10308800300798006e009000c800de003e009000f7
:1030980000014000c07528000000410010007800c1
:1030a80000806800600798004e0090000000e8006b
:1030b800400798000060fe00120020000300200076
:1030c8001e0f41005e9749005e0090008000eb00f3
:1030d800be0f5000ae8f5800e2ff3e00ce40900079
:1030e80043032000814978006e0090000080fa00b8
:1030f800000006001800fa0070079800010f9800f9
:10310800120f9800230f9800340f980041032000f5
:103118009140780051479800000020000040780056
:1031280034e0b7006000b800008fbe003c003700f4
:103138000060fe0032c0bf000080fb00300798002e
:103148006e004700100090000040780032e0b700a1
:103158007e0090008e089000000078001080ba0071
:10316800600798007e0090008e08900000007800ac
:103178001000ba00500798003e0090000040780008
:1031880032e0b7000040eb004047980017003700d6
:103198004e4090000080fb00ea004700008040009d
:1031a800104078008080fb003e0890008080680016
:1031b800f00f200000806000400798003e08900053
:1031c800c800de004e00900000014000c0752800d5
:1031d800000041001000780000806800300f98005f
:1031e8004e4090000040e800404798004e40900054
:1031f800e34f5000e6ff36007e0090008e089000f6
:1032080062004000e080480070079800010f9800b5
:1032180012002000030020001e0f41005e974900a5
:103228001e089000ae0890001e01be00800f5100dd
:10323800818f5900beff3900de4090004303200013
:10324800814978003e0890000080fa0000000600de
:103258000000fa0083e0a80012000700e901070057
:10326800c3fe0700020007000080fa000000060005
:103278000000fa00e098200011c0b300014878006f
:103288001a68ef004098200011c0b3000148780088
:10329800c097200011c0b300014878000080fa00f0
:1032a800000006000000fa00113a8000f00b200030
:1032b8000081600060042000710520002374200054
:1032c800804978008149780082497800f136800089
:1032d80000fc2f00008060005000b300f03688002a
:1032e8003135800000fc2f00008060001001b30021
:1032f8003035880011358000f00f2c008080600088
:1033080000a022000100700010358800613680009e
:1033180000fc2f0000806000c001b3006036880008
:1033280041358000f00f2c00008060004035880097
:1033380061368000f00f2c00808060000070200053
:1033480001007000603688004135800000fc2f00c5
:10335800008060000000a0004035880091368000a1
:10336800f00f2c008080600000a020000100700099
:1033780090368800a1368000f00f2c008080600015
:1033880000b0200001007000a03688006135800080
:1033980000fc2f0000806000a001b30060358800a9
:1033a800b1368000f00f2c008080600000102200f1
:1033b80001007000b0368800c135800000fc2f0085
:1033c800008060000020a000c035880051368000d1
:1033d800f00f2c000080600000d0a000503688005c
:1033e800103a8000000178000260a000600420000c
:1033f80071052000237420008049780081497800f5
:10340800824978002a23ef000080eb0060198800c9
:10341800c002a800c022a800c082a800c0a2a900bb
:10342800c0c2a900c0e2a900c122a900c1c2a80067
:10343800c802a900c822a900c842a800c862a800fa
:10344800c882a900c8a2a900c902a800c922a90067
:10345800c942a900c962a800c982a800c9a2a900d6
:10346800c9c2a900c9e2a800d042a800d062a90038
:10347800d082a800d182a800d1a2a900d1c2a900f7
:10348800d1e2a800d802a900d822a900d842a900f0
:10349800d882a800d8a2a900d8c2a900d8e2a90059
:1034a800d902a800d922a800d942a900d962a90046
:1034b800d982a800d9a2a900d9c2a900d9e2a80036
:1034c800e002a800e022a800e042a900e082a900ea
:1034d800e0a2a900e0c2a900e0e2a900e122a80058
:1034e800e802a900e822a800e842a900e882a800aa
:1034f800e8a2a800e902a800e982a800e9a2a800b9
:10350800f022a900f042a900f062a900f0c2a900c7
:10351800f0e2a800f102a900f122a900f182a900b5
:10352800f1a2a800f1c2a900f1e2a8000080fa0007
:10353800000006000400fa00008fbe0010c0b300af
:103548000080fa00000006000000fa0044c7a90045
:1035580044e7a9003200200080072000a1092000cc
:1035680033742000804978008149780082497800c6
:103578001200200060042000710520002374200040
:10358800804978008149780082497800000000006d
:10359800113a8000000027008080600000002300ae
:1035a800808f5000faff3a0000000000113a8000b6
:1035b80000022000008060000000e000fbff3200f5
:1035c8000080fa00000006000000fa001021ef0059
:1035d8000080eb006008880084e0a90094e0a9005e
:1035e80000c8bf000080fb00f07f8800108020002a
:1035f80011002000c07f8800d17f880083e0a900e7
:10360800042c0400000000000080fa0000000600fe
:103618000000fa00ccff07000dff0700c0c2b3008e
:1036280000e8b7000060fe004098200010407800d5
:10363800e14f400003003a0042fe0700e8fd0700a2
:1036480057fb0700b20007001ac8bf00e14f50003f
:10365800f4ff3a000000000000000000daff070055
:103668000000eb000080fa00000006001000fa00dd
:103678004007980051079800620798007307980060
:103688004e009000de0090006011b800028fbe006e
:10369800008fbe006e009000fe0090006011b80020
:1036a80022079800330798002007980031079800f0
:1036b80030002400003b88001e0090000040780085
:1036c80032e0b700ae0090001e0078000108bb0091
:1036d800be0090001e0078000188bb001000fc00ae
:1036e80050052000303b8800a00a2000303b8800ad
:1036f80061e7a800000000000000000000000000d2
:10370800013b800000002800008060000000e0000d
:10371800fbff3a0061c7a9000080fa00000006001c
:103728000a00fa00300798004107980032c0bf002d
:103738000080fb00000f7800660047001000900032
:103748000040780032e0b7003e009000ce009000c4
:10375800000078001080ba00200798003e00900012
:10376800ce009000000078001000ba001007980002
:103778001e0078000040780032e0b7001e0090007c
:10378800ae0090000080fa00000006000e00fa006b
:10379800300798004107980052079800630798007f
:1037a8000000eb00000f780030002400003b880088
:1037b8002b0037001e0078006101b8003e00900021
:1037c800ce00900002004000838048006011b800dd
:1037d80012079800230798001007980021079800ff
:1037e8002e0090000040780032e0b7001e007800fc
:1037f80000004000ee00900000804000900078003b
:103808001e0090000108bb001e00e80000004000f8
:10381800ee00900000804000900078001e009000ac
:103828000188bb001e8fe8001000fc005005200036
:10383800303b8800a00a2000303b880061e7a800e0
:10384800000000000000000000000000013b8000b4
:1038580000002800008060000000e000fbff3a0044
:103868005e0090009e007800808f5000d1ff3900e4
:1038780061c7a9000080fa00000006000600fa00ef
:10388800404798006000b800008fbe004e4090008e
:103898000081fb008001eb004a18dd00c610de0045
:1038a800810070004a10dd006011b800028fbe0070
:1038b800008fbe0020042400003b88002e409000aa
:1038c80032e0b7001e0078008080eb000108bb00e2
:1038d8001000fc0050052000303b8800a00a2000a2
:1038e800303b880061e7a8000000000000000000ed
:1038f80000000000013b80000000280000806000fc
:103908000000e000fbff3a000080fa00000006001b
:103918000200fa0094e0a900b0408000c04088008e
:1039280094e0a8000040eb00004f7800300037001a
:103938001e80fb00c200dd00c09720000080400010
:1039480010407800e24f500015003a00c140800056
:103958001e80fb004200dd000081e800c0972000c7
:103968000000410010007800808050001e80fb009d
:1039780000014000809820000000410010007800fd
:10398800808f5000060039001e80fb00c200dd0059
:10399800c09720000080400080c0eb0001487800fc
:1039a8001e80fb00c200dd00c097200000804000a0
:1039b80010407800e14f50000c003a001e80fb00d8
:1039c800c14080004201dd00e09720000000410076
:1039d800010878001e80fb00c200dd00c0972000af
:1039e8000080400021c0b300014878001e4fe80065
:1039f8001e407800e24f5000cdff36000080fa00ec
:103a0800000006000000fa000621ef0000fa20007e
:103a1800600888001021ef0081088000f0fc2f006a
:103a2800008060000040a0008008880084e0a900b1
:103a380094e0a80011e1a8000080fa000000060048
:020000040000fa
:103a4800320900004a0000000000000012080000cf
:103a580004000000000000008809000006000000c3
:103a68000200000094110200003200007c090000ee
:103a78000c00000000000000160800000400000010
:103a8800000000001c0800001601000000000000f3
:103a9800fc0f000002000000000000008e0900007a
:103aa80006000000000000001a08000002000000e4
:103ab8000200000001000000fe0f000002000000ec
:103ac8000200000000000000f80f000004000000e1
:103ad80002000000000000000000000000080000d4
:0c3ae800120000000000000000000000c0
:020000040000fa
:0457fc0000000000a9
:020000040000fa
:105828000000fa00bdf507000080fa00000006003d
:020000040000fa
:10583c000000fa00b8f507000080fa00000006002e
:020000040000fa
:105850000000fa00b3f507000080fa00000006001f
:020000040000fa
:105864000000fa00aef507000080fa000000060010
:020000040000fa
:105878000000fa00a9f507000080fa000000060001
:020000040000fa
:10588c000000fa00a4f507000080fa0000000600f2
:020000040000fa
:1058a0000000fa009ff507000080fa0000000600e3
:020000040000fa
:1058b4000000fa009af507000080fa0000000600d4
:020000040000fa
:1058c8000000fa0095f507000080fa0000000600c5
:020000040000fa
:020000040005f5
:0457f400ffff0000b3
:020000040000fa
:020000040005f5
:0457f800ae130000ec
:020000040000fa
:020000040005f5
:0457fc00773e0000f4
:00000001FF
